:02000000EE2BE5
:0C000600000000000000000000000800E6
:10001200243083120313FC00B530FD00FD0B0F28C2
:0A002200FC0B0F280000000008008E
:0E002C00533083120313FD00FD0B1A28080049
:10003A00831603139818232800001D288312031718
:08004A004608031399000800A9
:1000520083120313F801F9011030FC00710DF80D41
:10006200F90D7408F8027508031C750FF9020318DC
:1000720041287408F80775080318750FF90703106B
:0A008200F00DF10DFC0B2F28080013
:10008C0083120317C61B4C2886114D288615461B58
:10009C005128061152280615C61A562886105728BC
:1000AC008614461A5B2806105C280614391860283A
:1000BC00061661280612861603208612C6196828B1
:1000CC0086116928861546196D2806116E280615A5
:1000DC00C6187228861073288614461877280610BE
:1000EC007828061439187C2806167D2806128616E0
:1000FC0003208612391C8428092085281620080024
:10010C008312031739104108C6004620031739140F
:02011C000800D9
:10011E0083120313FB01FA01F901F801A001730D1B
:10012E00F80D7408F8027508031C750FF9027608AD
:10013E00031C760FFA027708031C770FFB020001EF
:10014E00031C0130A002F30D0730FC00730DF80DF7
:10015E00F90DFA0DFB0DA00D7408731CC828F802DA
:10016E007508031C750FF9027608031C760FFA0248
:10017E007708031C770FFB020001031C0130A0025D
:10018E00D928F80775080318750FF90776080318AC
:10019E00760FFA0777080318770FFB07000103188D
:1001AE000130A007F30DFC0BAD28720DF80DF90D03
:1001BE00FA0DFB0DA00D7408731CF728F8027508D4
:1001CE00031C750FF9027608031C760FFA027708E6
:1001DE00031C770FFB020001031C0130A00208294B
:1001EE00F80775080318750FF90776080318760FC8
:1001FE00FA0777080318770FFB0700010318013081
:10020E00A007F20D0730FC00720DF80DF90DFA0D76
:10021E00FB0DA00D7408721C2629F8027508031C2C
:10022E00750FF9027608031C760FFA027708031C85
:10023E00770FFB020001031C0130A0023729F807DB
:10024E0075080318750FF90776080318760FFA0765
:10025E0077080318770FFB07000103180130A0077A
:10026E00F20DFC0B0B29710DF80DF90DFA0DFB0DAE
:10027E00A00D7408721C5529F8027508031C750F21
:10028E00F9027608031C760FFA027708031C770F23
:10029E00FB020001031C0130A0026629F807750855
:1002AE000318750FF90776080318760FFA07770803
:1002BE000318770FFB07000103180130A007F10D9B
:1002CE000730FC00710DF80DF90DFA0DFB0DA00DA8
:1002DE007408711C8429F8027508031C750FF90245
:1002EE007608031C760FFA027708031C770FFB02C1
:1002FE000001031C0130A0029529F80775080318A8
:10030E00750FF90776080318760FFA0777080318A2
:10031E00770FFB07000103180130A007F10DFC0B4E
:10032E006929700DF80DF90DFA0DFB0DA00D74086D
:10033E00711CB329F8027508031C750FF9027608B3
:10034E00031C760FFA027708031C770FFB020001DD
:10035E00031C0130A002C429F80775080318750F95
:10036E00F90776080318760FFA0777080318770F40
:10037E00FB07000103180130A007F00D0730FC0049
:10038E00700DF80DF90DFA0DFB0DA00D7408701C13
:10039E00E229F8027508031C750FF9027608031C92
:1003AE00760FFA027708031C770FFB020001031C7D
:1003BE000130A002F329F80775080318750FF90725
:1003CE0076080318760FFA0777080318770FFB07DE
:1003DE00000103180130A007F00DFC0BC72970189F
:1003EE00062A7408F80775080318750FF9077608BA
:1003FE000318760FFA0777080318770FFB07080024
:0E040E00831203173B088A003A088200080098
:10041C0083120317C4010530440203181C2A440834
:10042C004307840020308000C40A112A4408430783
:10043C0084008001C40344084307C5000A30F4005B
:10044C00F5014108F0004208F10029207808F0007D
:10045C007908F1003030F007031745088400700864
:10046C0080000A30F400F5014108F0004208F10068
:10047C00292070080317C1007108C20000307106F2
:10048C00031D4A2A00307006031D4D2A4F2AC4034F
:04049C00212A080009
:1004A00083120317C301410884000008C2004208F8
:1004B000003A0319662A4208C6001D200317C30A22
:0E04C0004308410784000008C200572A0800C4
:1004CE00831203137008F100F0010830FC0071086C
:1004DE00F40C0318762AFC0B6F2AF101003403107A
:1004EE007B2AF40C0318F107F10CF00CFC0B782AA4
:0204FE000800F4
:10050000103083120317C1005022BD0132303D026A
:100510000318E12A871007148810081403138E01AA
:100520008F010230FB004530FC00A930FD00FD0BBF
:10053000972AFC0B972AFB0B972A000000000F0854
:10054000F000FF30F400672270080E07F40000305E
:100550000318013E7107F50074080317AD00750814
:10056000AE007408F0007508F100F201F301031306
:100570005008F00751080318510FF10752080318EB
:10058000520FF20753080318530FF3077008D000F7
:100590007108D1007208D2007308D30074080317E1
:1005A000C1007508C2002130C3000E222C30C100EA
:1005B00050222130C10050223530C1005022BD0AE6
:1005C000862A031350080317C100031351080317A9
:1005D000C2002130C3000E222130C100502203137B
:1005E00050080317C10050222930C1005022323078
:1005F000F400F501F601F70103135008F00051086B
:10060000F1005208F2005308F3008F20700883169F
:10061000EE007108EF00700883120317C100710823
:10062000C2002130C3000E223D30C100502283168B
:1006300003136E0883120317C10050223830C10023
:1006400050228316031341086E02F0004208031C77
:10065000013E6F02F10070088312BB007108BC00FC
:1006600070080317C1007108C2002130C3000E22B8
:10067000C330C10050222130C1005022BE30C10021
:0406800050220800FC
:10068400542B803083120317BD00672BC030BD008C
:10069400672B9430BD00672BD430BD00672B8030AE
:1006A400BD00672B831203173D08013A0319432B3E
:1006B4003D08023A0319482B3D08033A03194B2B12
:1006C4003D08043A03194E2B512B3E03F0003D081C
:1006D400F0077008BD007008C600462003173910E3
:1006E400C00140083F07840000080319812B40081B
:1006F4003F0784000008C1008620C00A732B391408
:020704000800EB
:100706008316031398169030831298008316871762
:10071600071383128C1E922B1A08F0008C2B0800EC
:10072600831603138612061206108610061186110A
:1007360083128612061286110611861006100920EB
:10074600092009208614061486160320861209201D
:100756008616032086120920861603208612092093
:100766000610861603208612092086160320861296
:100776008610861586160320861209208611061411
:100786008616032086120610861603208612092076
:100796008616032086120614861603208612092062
:1007A600061086160320861286150615861406146C
:0E07B600861603208612092003173914080046
:1007C40007228A110A128000840ABA0A0319BB0A92
:0807D400F003031DE22B0800F5
:1007DC00D625831603138801831288018316071408
:1007EC0083120710DF3083168500DF300317880073
:1007FC00943083128700AF30831603139700F030C8
:10080C0003178500A0308312880032308900A7308E
:10081C00031390000D30FB00AF30FC00B630FD0030
:10082C00FD0B162CFC0B162CFB0B162C0000831648
:10083C0086010317890193230C30C60046200C3027
:10084C000317C600462001300317BD000130BE005F
:10085C00B230BF0042231A30FB005E30FC006E3019
:10086C00FD00FD0B372CFC0B372CFB0B372C000041
:10087C000130C60046208316071387178130990074
:10088C0018158323A0300317C10050223330FB000E
:10089C00BB30FC00DF30FD00FD0B522CFC0B522C4E
:1008AC00FB0B522C0000000080223330FB00BB30CD
:1008BC00FC00DF30FD00FD0B612CFC0B612CFB0BF5
:1008CC00612C00000000031787100714881008140F
:1008DC0003138E018F010230FB004530FC00A93060
:1008EC00FD00FD0B772CFC0B772CFB0B772C000001
:1008FC0000000F08F000FF30F40067220E08F0072C
:10090C000318F10A70080317B6007108B7007008D5
:10091C00C1007108C2002F30C3000E225730C10035
:10092C0050222F30C10050225430C10050220313EA
:10093C003B080317C10003133C080317C2002F30F8
:10094C00C3000E226230C10050222F30C100502251
:10095C005F30C10050223808C100C2012F30C300E3
:10096C000E22D830C10050222F30C1005022D53079
:10097C00C100502203133C0803173702031DCA2C75
:10098C0003133B08031736020318CF2C0130BC00AD
:10099C00D02CBC013C08B8003C0803136F060319AB
:1009AC00E02C8316E301E4018312031738080313C8
:1009BC00EF00F92C643083166307F1006408031808
:1009CC00013EF2007108E3007208E400003072028C
:1009DC00031DF22C32307102031CF92C8312031705
:1009EC0038080313EE0083126E0803190B2D43080D
:1009FC00031D0B2D47300317C10050223130C600A8
:100A0C001D2044300317C100502203136E08031D30
:100A1C001D2D430803191D2DE5300317C10050226D
:100A2C003030C6001D201E300317C10050220313A6
:080A3C006E08C300692C212D96
:100BAC00213084004D3083120313F00027300317DB
:100BBC00BA000530BB00E223A030840021300313BF
:100BCC00F00098300317BA000530BB00E2236E30FA
:100BDC00840001300313F000D4300317BA00053041
:100BEC00BB00E223C130840024300313F0007430C6
:100BFC000317BA000530BB00E2236F3084000130CC
:100C0C000313F000D3300317BA000530BB00E22306
:100C1C001030831784000E300313F000B930031723
:100C2C00BA000530BB00E2238313E53084000930A1
:100C3C000313F000C7300317BA000530BB00E223E2
:100C4C001E308317840003300313F000D0300317D9
:0C0C5C00BA000530BB00E223831308003F
:100A4E0054346F34743461346C343A34203400349A
:060A5E000D340A340034DF
:100A6400533461346D3470346C3465343A34203426
:020A740000344C
:060A76000D340A340034C7
:060A7C000D340A340034C1
:040A82000034003408
:0C0A86004134763467343A3420340034B4
:020A920000342E
:060A94000D340A340034A9
:100A9A007334743461347434753473340D340A34F1
:020AAA00003416
:080AAC00003400340034003472
:060AB4000D340A34003489
:100ABA00763461346C34753465340D340A34003458
:060ACA000D340A34003473
:100AD0005434683472346534733468346F346C342D
:080AE00064343A342034003480
:040AE800643400343E
:100AEC00433461346C346934623420347434683483
:100AFC0072346534733468346F346C3464343A341F
:040B0C00203400345D
:060B10000D340A3400342C
:100B160052346134773454346F3475346334683402
:060B26003A3420340034D3
:040B2C00003400345D
:100B3000463472346F346D34203450346934633445
:100B40002034573469347434683420344C34753468
:040B500076340034C3
:100B54004E3461346D346D346F3420344E3461342A
:080B64006D346D346F34003470
:060B6C000D340A340034D0
:100B7200433461346C3469346234203473347434F1
:0C0B82006134723474340D340A340034D1
:100B8E007334743461347434753473340D340A34FC
:020B9E00003421
:060BA0000D340A3400349C
:020BA600003419
:020BA800003417
:04400E00F22F000786
:00000001FF
